{
  "_format": "hh-sol-artifact-1",
  "contractName": "LMIM",
  "sourceName": "contracts/LMIM.sol",
  "abi": [
    {
      "inputs": [
        {
          "internalType": "string",
          "name": "name_",
          "type": "string"
        },
        {
          "internalType": "string",
          "name": "symbol_",
          "type": "string"
        }
      ],
      "stateMutability": "nonpayable",
      "type": "constructor"
    },
    {
      "anonymous": false,
      "inputs": [
        {
          "indexed": true,
          "internalType": "address",
          "name": "from",
          "type": "address"
        },
        {
          "indexed": true,
          "internalType": "address",
          "name": "to",
          "type": "address"
        },
        {
          "indexed": true,
          "internalType": "uint256",
          "name": "tokenId",
          "type": "uint256"
        }
      ],
      "name": "Transfer",
      "type": "event"
    },
    {
      "inputs": [
        {
          "internalType": "address",
          "name": "from",
          "type": "address"
        }
      ],
      "name": "balanceOf",
      "outputs": [
        {
          "internalType": "uint256",
          "name": "",
          "type": "uint256"
        }
      ],
      "stateMutability": "view",
      "type": "function"
    },
    {
      "inputs": [
        {
          "internalType": "address",
          "name": "to",
          "type": "address"
        },
        {
          "internalType": "string",
          "name": "metadataURI",
          "type": "string"
        }
      ],
      "name": "mint",
      "outputs": [],
      "stateMutability": "payable",
      "type": "function"
    },
    {
      "inputs": [],
      "name": "name",
      "outputs": [
        {
          "internalType": "string",
          "name": "",
          "type": "string"
        }
      ],
      "stateMutability": "view",
      "type": "function"
    },
    {
      "inputs": [],
      "name": "symbol",
      "outputs": [
        {
          "internalType": "string",
          "name": "",
          "type": "string"
        }
      ],
      "stateMutability": "view",
      "type": "function"
    },
    {
      "inputs": [
        {
          "internalType": "uint256",
          "name": "tokenId",
          "type": "uint256"
        }
      ],
      "name": "tokenInfo",
      "outputs": [
        {
          "internalType": "string",
          "name": "",
          "type": "string"
        }
      ],
      "stateMutability": "view",
      "type": "function"
    },
    {
      "inputs": [],
      "name": "totalSupply",
      "outputs": [
        {
          "internalType": "uint256",
          "name": "",
          "type": "uint256"
        }
      ],
      "stateMutability": "view",
      "type": "function"
    }
  ],
  "bytecode": "0x60806040523480156200001157600080fd5b5060405162001237380380620012378339818101604052810190620000379190620001f6565b8160009081620000489190620004c6565b5080600190816200005a9190620004c6565b505050620005ad565b6000604051905090565b600080fd5b600080fd5b600080fd5b600080fd5b6000601f19601f8301169050919050565b7f4e487b7100000000000000000000000000000000000000000000000000000000600052604160045260246000fd5b620000cc8262000081565b810181811067ffffffffffffffff82111715620000ee57620000ed62000092565b5b80604052505050565b60006200010362000063565b9050620001118282620000c1565b919050565b600067ffffffffffffffff82111562000134576200013362000092565b5b6200013f8262000081565b9050602081019050919050565b60005b838110156200016c5780820151818401526020810190506200014f565b60008484015250505050565b60006200018f620001898462000116565b620000f7565b905082815260208101848484011115620001ae57620001ad6200007c565b5b620001bb8482856200014c565b509392505050565b600082601f830112620001db57620001da62000077565b5b8151620001ed84826020860162000178565b91505092915050565b6000806040838503121562000210576200020f6200006d565b5b600083015167ffffffffffffffff81111562000231576200023062000072565b5b6200023f85828601620001c3565b925050602083015167ffffffffffffffff81111562000263576200026262000072565b5b6200027185828601620001c3565b9150509250929050565b600081519050919050565b7f4e487b7100000000000000000000000000000000000000000000000000000000600052602260045260246000fd5b60006002820490506001821680620002ce57607f821691505b602082108103620002e457620002e362000286565b5b50919050565b60008190508160005260206000209050919050565b60006020601f8301049050919050565b600082821b905092915050565b6000600883026200034e7fffffffffffffffffffffffffffffffffffffffffffffffffffffffffffffffff826200030f565b6200035a86836200030f565b95508019841693508086168417925050509392505050565b6000819050919050565b6000819050919050565b6000620003a7620003a16200039b8462000372565b6200037c565b62000372565b9050919050565b6000819050919050565b620003c38362000386565b620003db620003d282620003ae565b8484546200031c565b825550505050565b600090565b620003f2620003e3565b620003ff818484620003b8565b505050565b5b8181101562000427576200041b600082620003e8565b60018101905062000405565b5050565b601f82111562000476576200044081620002ea565b6200044b84620002ff565b810160208510156200045b578190505b620004736200046a85620002ff565b83018262000404565b50505b505050565b600082821c905092915050565b60006200049b600019846008026200047b565b1980831691505092915050565b6000620004b6838362000488565b9150826002028217905092915050565b620004d1826200027b565b67ffffffffffffffff811115620004ed57620004ec62000092565b5b620004f98254620002b5565b620005068282856200042b565b600060209050601f8311600181146200053e576000841562000529578287015190505b620005358582620004a8565b865550620005a5565b601f1984166200054e86620002ea565b60005b82811015620005785784890151825560018201915060208501945060208101905062000551565b8683101562000598578489015162000594601f89168262000488565b8355505b6001600288020188555050505b505050505050565b610c7a80620005bd6000396000f3fe6080604052600436106100555760003560e01c806306fdde031461005a57806318160ddd1461008557806370a08231146100b057806395d89b41146100ed578063cc33c87514610118578063d0def52114610155575b600080fd5b34801561006657600080fd5b5061006f610171565b60405161007c919061057e565b60405180910390f35b34801561009157600080fd5b5061009a610203565b6040516100a791906105b9565b60405180910390f35b3480156100bc57600080fd5b506100d760048036038101906100d29190610646565b61020d565b6040516100e491906105b9565b60405180910390f35b3480156100f957600080fd5b50610102610256565b60405161010f919061057e565b60405180910390f35b34801561012457600080fd5b5061013f600480360381019061013a919061069f565b6102e8565b60405161014c919061057e565b60405180910390f35b61016f600480360381019061016a9190610801565b61038d565b005b6060600080546101809061088c565b80601f01602080910402602001604051908101604052809291908181526020018280546101ac9061088c565b80156101f95780601f106101ce576101008083540402835291602001916101f9565b820191906000526020600020905b8154815290600101906020018083116101dc57829003601f168201915b5050505050905090565b6000600254905090565b6000600460008373ffffffffffffffffffffffffffffffffffffffff1673ffffffffffffffffffffffffffffffffffffffff168152602001908152602001600020549050919050565b6060600180546102659061088c565b80601f01602080910402602001604051908101604052809291908181526020018280546102919061088c565b80156102de5780601f106102b3576101008083540402835291602001916102de565b820191906000526020600020905b8154815290600101906020018083116102c157829003601f168201915b5050505050905090565b60606003600083815260200190815260200160002080546103089061088c565b80601f01602080910402602001604051908101604052809291908181526020018280546103349061088c565b80156103815780601f1061035657610100808354040283529160200191610381565b820191906000526020600020905b81548152906001019060200180831161036457829003601f168201915b50505050509050919050565b600073ffffffffffffffffffffffffffffffffffffffff168273ffffffffffffffffffffffffffffffffffffffff16036103fc576040517f08c379a00000000000000000000000000000000000000000000000000000000081526004016103f39061092f565b60405180910390fd5b600460008373ffffffffffffffffffffffffffffffffffffffff1673ffffffffffffffffffffffffffffffffffffffff168152602001908152602001600020600081548092919061044c9061097e565b9190505550600260008154809291906104649061097e565b919050555080600360006002548152602001908152602001600020908161048b9190610b72565b506002548273ffffffffffffffffffffffffffffffffffffffff16600073ffffffffffffffffffffffffffffffffffffffff167fddf252ad1be2c89b69c2b068fc378daa952ba7f163c4a11628f55a4df523b3ef60405160405180910390a45050565b600081519050919050565b600082825260208201905092915050565b60005b8381101561052857808201518184015260208101905061050d565b60008484015250505050565b6000601f19601f8301169050919050565b6000610550826104ee565b61055a81856104f9565b935061056a81856020860161050a565b61057381610534565b840191505092915050565b600060208201905081810360008301526105988184610545565b905092915050565b6000819050919050565b6105b3816105a0565b82525050565b60006020820190506105ce60008301846105aa565b92915050565b6000604051905090565b600080fd5b600080fd5b600073ffffffffffffffffffffffffffffffffffffffff82169050919050565b6000610613826105e8565b9050919050565b61062381610608565b811461062e57600080fd5b50565b6000813590506106408161061a565b92915050565b60006020828403121561065c5761065b6105de565b5b600061066a84828501610631565b91505092915050565b61067c816105a0565b811461068757600080fd5b50565b60008135905061069981610673565b92915050565b6000602082840312156106b5576106b46105de565b5b60006106c38482850161068a565b91505092915050565b600080fd5b600080fd5b7f4e487b7100000000000000000000000000000000000000000000000000000000600052604160045260246000fd5b61070e82610534565b810181811067ffffffffffffffff8211171561072d5761072c6106d6565b5b80604052505050565b60006107406105d4565b905061074c8282610705565b919050565b600067ffffffffffffffff82111561076c5761076b6106d6565b5b61077582610534565b9050602081019050919050565b82818337600083830152505050565b60006107a461079f84610751565b610736565b9050828152602081018484840111156107c0576107bf6106d1565b5b6107cb848285610782565b509392505050565b600082601f8301126107e8576107e76106cc565b5b81356107f8848260208601610791565b91505092915050565b60008060408385031215610818576108176105de565b5b600061082685828601610631565b925050602083013567ffffffffffffffff811115610847576108466105e3565b5b610853858286016107d3565b9150509250929050565b7f4e487b7100000000000000000000000000000000000000000000000000000000600052602260045260246000fd5b600060028204905060018216806108a457607f821691505b6020821081036108b7576108b661085d565b5b50919050565b7f4552433732313a2073686f756c646e2774206d696e7420746f20746865207a6560008201527f726f206164647265737300000000000000000000000000000000000000000000602082015250565b6000610919602a836104f9565b9150610924826108bd565b604082019050919050565b600060208201905081810360008301526109488161090c565b9050919050565b7f4e487b7100000000000000000000000000000000000000000000000000000000600052601160045260246000fd5b6000610989826105a0565b91507fffffffffffffffffffffffffffffffffffffffffffffffffffffffffffffffff82036109bb576109ba61094f565b5b600182019050919050565b60008190508160005260206000209050919050565b60006020601f8301049050919050565b600082821b905092915050565b600060088302610a287fffffffffffffffffffffffffffffffffffffffffffffffffffffffffffffffff826109eb565b610a3286836109eb565b95508019841693508086168417925050509392505050565b6000819050919050565b6000610a6f610a6a610a65846105a0565b610a4a565b6105a0565b9050919050565b6000819050919050565b610a8983610a54565b610a9d610a9582610a76565b8484546109f8565b825550505050565b600090565b610ab2610aa5565b610abd818484610a80565b505050565b5b81811015610ae157610ad6600082610aaa565b600181019050610ac3565b5050565b601f821115610b2657610af7816109c6565b610b00846109db565b81016020851015610b0f578190505b610b23610b1b856109db565b830182610ac2565b50505b505050565b600082821c905092915050565b6000610b4960001984600802610b2b565b1980831691505092915050565b6000610b628383610b38565b9150826002028217905092915050565b610b7b826104ee565b67ffffffffffffffff811115610b9457610b936106d6565b5b610b9e825461088c565b610ba9828285610ae5565b600060209050601f831160018114610bdc5760008415610bca578287015190505b610bd48582610b56565b865550610c3c565b601f198416610bea866109c6565b60005b82811015610c1257848901518255600182019150602085019450602081019050610bed565b86831015610c2f5784890151610c2b601f891682610b38565b8355505b6001600288020188555050505b50505050505056fea264697066735822122062fc9e83f1a19fa401f4f358b70466e45c8fabf69f190c83edf8ba919068aebe64736f6c63430008110033",
  "linkReferences": {},
  "deployedLinkReferences": {}
}